:020000040800F2
:10000000A8060020A9010008D1180008C51600089C
:10001000CD18000891130008DB2400080000000040
:10002000000000000000000000000000891F000820
:10003000A915000800000000A91C0008B320000852
:10004000C3010008C3010008C3010008C301000880
:10005000C3010008C3010008C3010008C301000870
:10006000C3010008C3010008C3010008C301000860
:10007000C3010008C3010008C3010008C301000850
:10008000C3010008C3010008C3010008C301000840
:10009000C3010008C3010008C3010008C301000830
:1000A000C3010008C3010008C3010008C301000820
:1000B000C301000839210008C3010008C30100087A
:1000C000C3010008C3010008C3010008C301000800
:1000D000C3010008C5220008C3010008C3010008CD
:1000E000C3010008C3010008C301000800F002F8C2
:1000F00000F04AF80AA090E8000C82448344AAF178
:100100000107DA4501D100F03FF8AFF2090EBAE875
:100110000F0013F0010F18BFFB1A43F0010318473B
:10012000802C0000A02C0000103A24BF78C878C1B1
:10013000FAD8520724BF30C830C144BF04680C60ED
:10014000704700000023002400250026103A28BF35
:1001500078C1FBD8520728BF30C148BF0B60704739
:10016000662902F0C785642900F05280002070479C
:100170001FB500F0E3FB04000020002102F03CFB6F
:10018000E0601FBD10B510BD00F0D4FC1146FFF7B4
:10019000EFFF02F085FA00F0F2FC03B4FFF7F2FF84
:1001A00003BC00F033FD00000948804709480047C0
:1001B000FEE7FEE7FEE7FEE7FEE7FEE7FEE7FEE717
:1001C000FEE7FEE704480549054A064B7047000074
:1001D000B5200008ED000008A8000020A8060020B7
:1001E000A8020020A80200200FB41CB5074B06AAE5
:1001F0007B4469460090059800F087FB0020694623
:1002000000F096FB1CBC5DF814FB00003D070000ED
:100210002DE9F0410646002410687529314616A5DF
:1002200010D0AFF30080002802DA404213A507E0A7
:1002300031688A0701D512A502E0490704D511A546
:10024000012401E0AFF3008000210A2206F1240717
:1002500009E0B0FBF2FCB0FBF2F302FB1C00303013
:1002600078541846491C0028F3D123462A463046C4
:10027000BDE8F04100F0DDB8000000002D000000F6
:100280002B000000200000002DE9F0474FF0000A8D
:1002900089460446C0F820A02046E1688847002827
:1002A00076D0252806D0D4E901219047206A401C49
:1002B0002062F1E7E168204600258847C4F81CA0C9
:1002C00006460027C4F818A02A2E09D0304602F0AE
:1002D00073F938B304EB8708303EC8F8186019E0AA
:1002E00059F8041B204604EB87029161E1688847B6
:1002F000012F064618D1E069002820DA25F02005F4
:100300001DE0D8F8180000EB800006EB4000303804
:10031000C8F818002046E1688847064602F04CF904
:100320000028EED1012F0AD02E2E08D12046E168F8
:1003300088477F1C0646022F45F02005C4DBA069D4
:10034000002803DA404245F00105A061E80701D02A
:1003500025F01005B6B1A6F14100192802D82036C3
:1003600045F400654A463146204625604D46FFF774
:10037000F7FE58B1012806D0ED1D25F0070000F169
:10038000080989E704E005F1040985E730468AE7B2
:10039000206ABDE8F08740EA010370B59B072ED1C3
:1003A0004FF00136042A2AD308C810C99D1B9D436B
:1003B000121F15EAC61517D0D8B2E1B2401A50EA9A
:1003C000056110D198B2A1B2401A50EA05410AD194
:1003D00023F07F4024F07F41401A50EA052102D1EA
:1003E000180EA0EB146070BDA342DBD018BA21BA7E
:1003F000884201D9012070BD4FF0FF3070BD0AB9AD
:10040000002070BD10F8013B11F8014B63B1A3420D
:100410000AD1521E08D010F8013B11F8014B1BB154
:10042000A34201D1521EEDD1181B70BD7047704719
:1004300070472DE9F0470D4699469246044600F173
:1004400024080168880604D5E06921F010012160C4
:1004500000E00120A84201DD471B00E00027A16960
:100460007A1902EB0900081AA0612078C00602D4AC
:100470002046AFF30080002608E0D4E901211AF8F5
:1004800006009047206A401C761C20624E45F4DB33
:100490002078C0060AD52046AFF3008006E0D4E9F4
:1004A000012130209047206A401C2062381EA7F1AD
:1004B0000107F4DC07E0D4E9012118F805009047B2
:1004C000206A401C2062281EA5F10105F3DC2046AD
:1004D000AFF300802078000602D50220BDE8F08747
:1004E0000120FBE770472DE9FF4F0C461E464FF0F9
:1004F000FF378BB0D2E90001DDF860800A908A46B0
:10050000C1F30A5505B93D46002108464FF00000E9
:10051000BAF1000F00F4400005DA00EB80004FF460
:10052000400101EA50004FEA9059B9F1010F00DD96
:10053000B9460A9850EA4A000ED044F61050A5F287
:10054000FF3545432F14B8F1000F1ED07542291E08
:100550001EDDC9F100021CE0B8F1010F4FF00000F0
:1005600001D0302103E0F24305E02154401CB042A9
:10057000FBDB30460022002121540B99C1F8088092
:10058000C1E900200FB0BDE8F08FBD1B6D1CDEE798
:100590004A4600DA694206A800F05AFA06AB93E828
:1005A000070003AB83E8070050460A9900F035FBCB
:1005B0008DE80700A0F500501F3800900398002D2B
:1005C00009DD42F21F014A46084403A90390684628
:1005D00000F094FD08E0A0F500504A461F3803A93A
:1005E0000390684600F09EFD8DE807000004000CB3
:1005F00003D04FF0FF30410800E01046B8F1000F83
:1006000003D00022009215461EE0751E05D400F0AE
:1006100099F9303262556D1EF9D5B346012208436F
:1006200002D000227F1C04E02078302801D1002273
:100630007F1E002A099786D01DE0112D07DA00F0F1
:1006400081F9303262556D1C50EA0102F5D1084340
:1006500002D00098C8B10EE00021681E05E0235CBE
:10066000625C63542254401E491C8142F7DBAB4656
:10067000A81B401E0990002004F80B000B98099A53
:10068000C0F80880C0E9002B7CE711264FF0000875
:1006900059E72DE9F04F88460446D21D22F00701A4
:1006A00091B0D1E90001CDE90A0101F071FF0246E4
:1006B0000B98C00F01D02D2007E02068810701D5DD
:1006C0002B2002E0202101EAC000032A099001D07A
:1006D000072A05DB03464146204600F079F90BE185
:1006E0002078800601D5E06900E00620B8F1650FAA
:1006F000814606D0B8F1660F18D0B8F1670F70D1F7
:1007000031E00020B9F1110F009001DB112301E06D
:1007100009F101030AAA01A90CA8FFF7E4FEDDE92B
:100720000C70002609F10105834647E001204B4685
:1007300000904FF000470AAA01A90CA8FFF7D3FECA
:10074000DDE90DB00C995D46002610B909F10100F4
:100750000D18B9EB050003D4C0F1FF3609F101050E
:10076000A5EB09002BE0B9F1010F01DA4FF0010907
:100770000020B9F1110F0090484601DD112300E07F
:1007800003460AAA01A90CA8FFF7ADFEDDE90C702B
:100790004D4600268346207800070AD4AB4500DA90
:1007A0005D4601A8012D04DD411911F8011C302915
:1007B00007D04F4502DA17F1040F04DA0120824610
:1007C0000FE06D1EEEE7002F02DCED1B3E4403E060
:1007D000781CA84200DD7D1CB81B00F1010A4FF017
:1007E00000472078000703D4AA4501DB4FF0FF3A09
:1007F0000021B7F1004F0DF143088DF8431024D0CC
:1008000002202B23002F01DA7F422D230A21021E12
:10081000A0F1010000DC5FB197FBF1FC97FBF1F266
:1008200001FB1C7C17460CF1300C08F801CDEEE7FB
:10083000A8F1010003702188090501D5452100E0D8
:100840006521A0F1010800F8011C09980FA9A1EB8E
:100850000807FF1D00B10120411901EBEA70A169F1
:100860003844081A401EA0612078C00602D42046F1
:10087000AFF30080099828B1D4E901219047206A9C
:10088000401C20622078C00622D52046AFF30080AD
:100890001EE0002E04DBB34502DD01A8805D00E010
:1008A0003020D4E901219047206A401C2062761C48
:1008B000AAF101005FEA000A0AD100F03FF8C0681F
:1008C0000168405CD4E901219047206A401C206205
:1008D000281EA5F10105DCDC07E0D4E9012118F8A8
:1008E000010B9047206A401C2062381EA7F10107C7
:1008F000F3DC2046AFF30080032011B043E6000094
:1009000001694A1C02610878704700B58FB0CDE9D3
:1009100001310021059105497944CDE903101146C3
:100920006846FFF7B1FC0FB000BD0000E5FFFFFF18
:100930000A6802F8010B0A6070470000004870471F
:100940006400002030B5B0F10A024FEA900E71F158
:1009500000034EEA817EB0EB0E0061EB91014FEA9D
:10096000101E4EEA017E10EB0E0041EB11114FEA12
:10097000102E4EEA016E10EB0E0041EB11214FEAF2
:10098000104E4EEA014E10EB0E0041EB11414018A3
:1009900041F100014FEAD00040EA41704FEAD10135
:1009A00010EB80054FEA810444EA907444EB0104A3
:1009B0006D1944EB0404521BA3414FF0000348BFE0
:1009C0000A3200D530BD401C41F1000130BD0000AD
:1009D0002DE9F0411F46044603260168072A01F469
:1009E000006004DB08B116A505E016A503E008B118
:1009F00015A500E015A521F010002060A069C01E1B
:100A0000A0610FB1401EA0612046AFF300804FB13E
:100A1000D4E9012138469047206A401C2062C01C5E
:100A2000206206E0206AFAE7D4E9012115F8010BFB
:100A30009047761EF8D22046AFF30080BDE8F081E3
:100A40004E414E006E616E00494E4600696E660072
:100A50002DE9F047814616468AB0334878440DC8E0
:100A60008DE80D0030487844801C03AC0DC884E844
:100A70000D0041F69B300844372190FBF1F290FBCA
:100A8000F1F5A5F1800501FB12041B3C02D564427F
:100A9000012000E00020DFF890A080460027FA4403
:100AA000AAF1BE0A0DE0E00709D03246684607EB1E
:100AB00047010AEB810100F035FB8DE80700641067
:100AC0007F1C002CEFD1184F7F44AC3F18E0E807A3
:100AD00014D007EB04100DF1180A90E80E008AE814
:100AE0000E00C068F04201D198190890324606A95C
:100AF00003A800F017FB03AB83E807006D10641C2C
:100B0000002DE4D132466946B8F1000F03A802D0A7
:100B100000F0F4FA01E000F005FBC9E90001C9F8B2
:100B200008200AB0BDE8F08728230000004870477D
:100B3000440000207546FFF7F9FFAE460500694600
:100B4000534620F00700854618B020B5FFF73AFB62
:100B5000BDE820404FF000064FF000074FF00008BE
:100B60004FF0000B21F00701AC46ACE8C009ACE83F
:100B7000C009ACE8C009ACE8C0098D46704704461E
:100B8000AFF300802046FFF708FB00004FF0013C68
:100B900050F8042B51F8043B9A4221D1A2EB0C03EC
:100BA000934313EACC1317D150F8042B51F8043BAC
:100BB0009A4215D1A2EB0C03934313EACC130BD149
:100BC00050F8042B51F8043B9A4209D1A2EB0C03D4
:100BD000934313EACC13DBD04FF00000704700BF03
:100BE000D01A01BAB1FA81F101F0180122FA01F02C
:100BF000CB40C1F12001DBB2C0B2C01A2CFA01F324
:100C0000D11A914311EAC311E6D170470149182066
:100C1000ABBEFEE72600020070475FEA400C08BF4B
:100C200091F0000F4FEA8C234FEAC12243EA515161
:100C30004FEA1C5018BF00F5F0404FEA300018BFD3
:100C400041F000415FEA6C5C00F02980BCF1FF3F9D
:100C500008BF40F080407047130C06BF12044FF0ED
:100C6000100C4FF0000C130E04BF12020CF1080C14
:100C7000130F04BF12010CF1040C930F04BF920078
:100C80000CF1020CD30F04BF52000CF1010C114601
:100C90004FF00002A0F11F00A0EB0C00704711F014
:100CA000004F08BF704731F000413FF4D5AF0B0C47
:100CB00006BF09044FF0100C4FF0000C0B0E04BFE0
:100CC00009020CF1080C0B0F04BF09010CF1040C14
:100CD0008B0F04BF89000CF1020CCB0F04BF49003D
:100CE0000CF1010CCCF12003A0EB0C0022FA03F371
:100CF00002FA0CF241EA030100F10100704720F012
:100D00007F4C80EA030023F07F47ACEB070303F539
:100D10007C5300F0004003F1FF032DE980494FEAC6
:100D2000154B09B44FEA144325EA0B4E24EA034855
:100D30000FF2042606EB132749083E785FEA3202D9
:100D400003FB0667C7F5000707FB06F64FEA5437B3
:100D50004FEAD64606F1020607FB066CCCF1005CB2
:100D60004FEA1C472CEA074C07FB06F40CFB06F580
:100D700004EB15464FEA961634BF00204FF00040B2
:100D80004FEAD13706FB07FC4FEA1C4C0CFB0BF774
:100D9000D21B03FB0CF761EB07010CFB0EF7B0EB6A
:100DA000074072EB17420CFB08F734BFA2EB074277
:100DB000B2EB074261EB17414FEA0C444FEA91074F
:100DC00006FB07FC4FEA1C4C0CFB0BF7B0EBC740D3
:100DD00072EB573203FB0CF734BFA2EBC742B2EB06
:100DE000C74261EB57310CFB0EF7B0EBC70072EB5B
:100DF00057720CFB08F734BFA2EBC702B2EBC70275
:100E000061EB5771039F4FEA816141EA921104EB54
:100E1000CC044FEAD1374FEA826206FB07FC42EA74
:100E200090124FEA80604FEA1C4C0CFB0BF7D21B70
:100E300003FB0CF761EB07010CFB0EF7B0EB07406F
:100E400072EB17420CFB08F734BFA2EB0742B2EB80
:100E5000074261EB17414FEA8C554FEA910704EBCB
:100E60009C2406FB07FC4FEA1C4C0CFB0BF7B0EB79
:100E7000C74072EB573203FB0CF734BFA2EBC742FB
:100E8000B2EBC74261EB57310CFB0EF7B0EBC7007A
:100E900072EB57720CFB08F734BFA2EBC702B2EB40
:100EA000C70261EB577115EB4C254FEA816141EAAE
:100EB00092114FEA82624FEAD13742EA901206FB62
:100EC00007FC44F100044FEA80604FEA1C4C0CFB25
:100ED0000BF7D21B03FB0CF761EB07010CFB0EF7C2
:100EE000B0EB074072EB17420CFB08F734BFA2EBE4
:100EF0000742B2EB074261EB174115EB1C154FEAB5
:100F0000813141EA92414FEA823242EA90424FEA0D
:100F100080304FEA0C7644F1000448EA03434EEA7D
:100F20000B484FF0000EB2EB080C71EB030724BF27
:100F3000624639464EEB0E0E4FF0000B0018524140
:100F400049414BEB0B0BB2EB080C71EB03077BF148
:100F5000000B24BF624639464EEB0E0E4FF0000BDD
:100F60000018524149414BEB0B0BB2EB080C71EBF3
:100F700003077BF1000B24BF624639464EEB0E0E91
:100F800051EA020718BF46F0010616EB0E7655F13E
:100F9000000254F1000103D5BDE88901BDE80088D5
:100FA000BDE88901BDE80048B619524141EB010195
:100FB000A3F10103704780807F7E7D7C7B7A797806
:100FC000777676757473727171706F6E6E6D6C6C0E
:100FD0006B6A6A69686867666665646463636261B0
:100FE0006160605F5F5E5E5D5D5C5C5B5B5A5A5931
:100FF000595858575756565555555454535352529D
:101000005251515050504F4F4F4E4E4D4D4D4C4CF4
:101010004C4B4B4B4A4A4A4949494848484747473D
:10102000474646464545454444444443434343427A
:10103000424242414141002B26D4770021D01CB5C9
:101040004FEA370703B44FF010004FF010014FF094
:1010500000000FBCBDE810400BF1010BBBF1010F0C
:1010600008BF5FEA170722BF12F1010211F1010167
:101070004FF0004143F1000300F0004043EA00005C
:101080007047F9D35708DAE746EA064613F1400FEE
:101090004FEA16461FDD13F1200FDFBF16430A4645
:1010A000002120335B42C8D0C3F1200746EA064640
:1010B00002FA07F74FEA164646EA0706C3F1200789
:1010C00022FA03F201FA07F721FA03F14FF00003C5
:1010D00042EA0702B1E746EA020646EA06464FEA56
:1010E000164646EA0106BCBF46EA0646360C4FF0F5
:1010F00000034FF000024FF000019EE72DE9C048C9
:10110000934630B491E8380007C831EA400C48BF34
:1011100034EA430C03D5FFF7F2FDFFF78CFFF0BC78
:10112000BDE800882DE9C048934630B491E8380006
:1011300007C810F0804F08BF13F0804F03D100F0B4
:1011400005F8FFF778FFF0BCBDE8008820F07F4786
:1011500080EA030023F07F4C07EB0C03A3F57C53DC
:1011600000F00040A3F1FE0392F0000F00F0B38006
:1011700095F0000F00F077802DE901494FEA11400A
:101180004FEA144621EA004800FB06FC24EA064721
:1011900008FB06F607FB08F800FB07F718EB064804
:1011A0004CEB164C4FEA124B18EB07484FEA15462A
:1011B0004CEB174022EA0B4E0BFB06FC25EA0647D8
:1011C0000EFB06F607FB0EFE0BFB07F71EEB064EAB
:1011D0004CEB164C4FF000061EEB074E4CEB174B3A
:1011E00018EB0B0840F1000018EB0E0B58EB000851
:1011F00040F100008F1A4FF000013CBFC943661B4D
:1012000014BFB5EB040C00213CBFC943F61B4FEAE9
:1012100017444EEA8E0E27EA04454FEA1C4704FBAA
:1012200007622CEA074C05FB07F70CFB05F604FBED
:101230000CFC16EB074642EB174216EB0C4642EB52
:101240001C421BEB060658EB0202414146EA9E0691
:1012500001D5BDE80189B619524141EB0101A3F165
:101260000103BDE801894FEA14454FEA114724EA1A
:10127000054621EA074C05FB07F406FB07F70CFBC4
:1012800006F105FB0CFC11EB074144EB17444FEA58
:10129000124711EB0C4144EB1C4422EA074C05FBBE
:1012A00007F206FB07F70CFB06F605FB0CFC16EB3A
:1012B000074642EB174216EB0C4642EB1C456A18F8
:1012C00054F1000148BF7047B619524141EB01018A
:1012D000A3F10103704795F0000F37D04FEA114298
:1012E0004FEA144721EA024624EA074C02FB07F1C1
:1012F00006FB07F70CFB06F402FB0CFC14EB07449F
:1013000041EB17414FEA154714EB0C4441EB1C41EC
:1013100025EA074C02FB07F506FB07F70CFB06F670
:1013200002FB0CFC16EB074645EB174516EB0C468B
:1013300045EB1C42121951F1000148BF7047B61924
:10134000524141EB0101A3F1010370474FEA1445FB
:101350004FEA114724EA054621EA074C05FB07F14D
:1013600006FB07F70CFB06F24FF0000605FB0CFC32
:1013700012EB074241EB174112EB0C4251EB1C41BF
:1013800048BF7047921841EB0101A3F10103704778
:1013900000BFFEE710B5044600F022FA462000F038
:1013A000F7F900BF00F052FA0028FBD1204600F008
:1013B000EFF900BF00F04AFA0028FBD100F02CFA48
:1013C000052001F001F910BD2DE9F0410F4800782A
:1013D0000F4908800D484078097800EB01200C493E
:1013E00008800846008801F027FC804601F0F8FBE1
:1013F00006464FF03332074B01F046FA044601F03F
:1014000011FA05490860BDE8F08100002C000020B9
:101410002E0000203333F33F0400002070B5002479
:10142000002519E000BF0E4800680028FBD02820E6
:1014300001F0F0F80A480068012809D16006040E9E
:1014400044F0010400BF064800680128FBD001E019
:101450006006040E681CC5B2082DE3DB204670BD93
:101460000C01214270B50446002500BF0D480068FC
:101470000128FBD0002504E0FFF7D0FF6055681C71
:10148000C5B2052DF8DB207861780844A1780844BE
:10149000E17808442179884201D1002070BD012003
:1014A000FCE700000C01214210B5002400F066F8B2
:1014B00000201F490860142001F086F801201D4912
:1014C000C1F88C01142001F0A5F800F045F809E0FE
:1014D00017488038006800B906E0012001F09AF84A
:1014E000601CC4B2642CF3DB00BF11488038006874
:1014F000012800D110BD0024462001F08BF80AE03D
:101500000B4880380068012800D106E0012001F076
:1015100081F8601CC4B2642CF2DB00BF0448803840
:101520000068012801D10020E4E70120E2E7000083
:101530008C0121420000214210B5044600BFFFF794
:10154000B3FF0128FBD02046FFF78CFF012800D114
:1015500010BD0020FCE7000008B50820ADF8000031
:1015600004208DF8030003208DF80200694602482C
:1015700000F01BF808BD00000008014008B501217B
:10158000042000F0A3FB0820ADF8000010208DF827
:10159000030003208DF802006946024800F005F8B8
:1015A00008BD00000008014070472DE9F0410246E7
:1015B00000250026002000230024002791F803C006
:1015C0000CF00F0591F803C00CF0100CBCF1000FEB
:1015D00003D091F802C04CEA050591F800C0BCF1B7
:1015E000000F31D0146800202BE04FF0010C0CFAF2
:1015F00000F3B1F800C00CEA03069E4220D183003C
:101600004FF00F0C0CFA03F7BC4305FA03FC4CEA4D
:10161000040491F803C0BCF1280F06D14FF0010C6F
:101620000CFA00FCC2F814C00AE091F803C0BCF147
:10163000480F05D14FF0010C0CFA00FCC2F810C0A5
:10164000401C0828D1D31460B1F800C0BCF1FF0FD2
:1016500034DD546800202EE000F1080C4FF0010842
:1016600008FA0CF3B1F800C00CEA03069E4221D13F
:1016700083004FF00F0C0CFA03F7BC4305FA03FC90
:101680004CEA040491F803C0BCF1280F05D100F125
:10169000080C08FA0CF8C2F8148091F803C0BCF1E9
:1016A000480F07D100F1080C4FF0010808FA0CF8B8
:1016B000C2F81080401C0828CED35460BDE8F081E9
:1016C0000161704700BFFEE710B500200A490860BD
:1016D00000F0A6FB00200949C1F89C01022000F09F
:1016E00099FF012004490860022000F093FF0020C8
:1016F0000249C1F8980110BD988121420080214221
:1017000010B500200A49086000F08AFB0120094951
:10171000C1F89C01022000F07DFF0120044908600F
:10172000022000F077FF00200249C1F8980110BDA7
:10173000988121420080214270B50546002400F0C6
:101740005DFB002616E000200F490860022000F033
:1017500061FF01200D49C1F898016006040E0A4896
:101760007C38006808B1601CC4B2012000F052FF50
:10177000701CC6B2082EE6DB15B9FFF7C1FF01E009
:10178000FFF7A2FF204670BD9881214200802142D0
:1017900070B5044600F044FB00200F4908600025A6
:1017A00017E0E0090C49091D08606006040E0220DC
:1017B00000F030FF01200949C1F89801022000F033
:1017C00029FF002004490860022000F023FF681C64
:1017D000C5B2082DE5DB70BD988121420080214211
:1017E00010B500F01DFB0120094908600949C1F846
:1017F0009801052000F00EFF002005490860052033
:1018000000F008FF00200349C1F8980110BD000056
:101810009C8121420080214210B500F001FB002094
:10182000084908600849C1F89C01052000F0F2FE53
:101830000120044908600449C1F89C01052000F01A
:10184000E9FE10BD988121420080214210B500249C
:1018500001200F49086000F0DDFE01200D49C1F8AC
:10186000980100F0D7FE00F0C9FA07E0601CC4B28E
:10187000FA2C03DDFFF7D0FF012010BD04488038AB
:1018800000680028F2D10249091F086000BFF4E790
:101890009C8121420080214210B500F0E1FE10BD84
:1018A00008B50121102000F011FA4FF40050ADF8F6
:1018B000000003208DF8020010208DF80300694617
:1018C0000148FFF772FE08BD0010014000BFFEE7AF
:1018D000704700001CB510A103C9CDE90001052225
:1018E0006946302000F068F905226946102000F0B2
:1018F000B5F8002406E01DF80400AA2800D003E093
:10190000601CC4B2052CF6DB00BF052C01D0012001
:101910001CBD0020FCE70000AAAAAAAAAA00000099
:1019200008B5012141F2040000F0D0F9E020ADF843
:10193000000018208DF8030003208DF8020069468E
:101940002B48FFF732FEE0212948FFF7B9FE1020AF
:10195000ADF800008DF8030003208DF80200694601
:101960002348FFF722FE10212148FFF7A9FE04209B
:10197000ADF8000010208DF8030003208DF8020060
:1019800069461B48FFF711FE0220ADF80000482011
:101990008DF8030003208DF8020069461448FFF714
:1019A00004FE12211248FFF78BFE00201149088027
:1019B0004FF48270488000208880C88008814FF4EE
:1019C00000704881102088810020C881072008828B
:1019D000094800F0BBFA0121074800F09DFA0020F9
:1019E0000649086001200649C1F8900108BD0000C1
:1019F00000080140300000200030014088012142F1
:101A00000000214210B5044600201249086005225A
:101A100021462A2000F0D0F80121212000F0EAF828
:101A20000121222000F0E6F82821252000F0E2F82C
:101A30002021312000F0DEF80F21262000F0DAF816
:101A40000F21202000F0D6F801200349C1F88801B9
:101A500010BD000088012142000021422DE9F04123
:101A600007460D46164600200A490860384600F031
:101A700029FA8046002405E0FF2000F023FA2855CB
:101A8000601CC4B2B442F7DB012002490860404642
:101A9000BDE8F0819001214270B50446002007495D
:101AA0000860204600F00EFAFF2000F00BFA054611
:101AB00001200349C1F89001284670BD90012142E0
:101AC0000000214270B504460720FFF7E5FF0546F8
:101AD0002946272000F08EF805F0400050B1202262
:101AE00021466120FFF7BAFFFF21E22000F082F8D3
:101AF000002070BD0120FCE710B504460020144909
:101B0000086005222146302000F056F805222146C3
:101B10002A2000F051F80121212000F06BF801216A
:101B2000222000F067F81A21242000F063F8282111
:101B3000252000F05FF80F21262000F05BF80E2131
:101B4000202000F057F801200249C1F8880110BD9B
:101B5000880121420000214270B505460020144949
:101B6000086020222946A02000F026F80120114913
:101B7000C1F8880100BF0E48843800680028FAD1F7
:101B80000720FFF789FF04462146272000F032F89E
:101B900004F0100028B1FF21E12000F02BF8102004
:101BA00070BD04F0200008B12020F9E7FF20F7E71E
:101BB00088012142000021422DE9F04107460C46F0
:101BC000154600200A490860384600F07BF9804637
:101BD000002605E014F8010B00F074F9701CC6B281
:101BE000AE42F7DB0120024908604046BDE8F081C3
:101BF0009001214270B505460C4600200749086057
:101C0000284600F05FF90646204600F05BF9012007
:101C10000349C1F89001304670BD00009001214297
:101C20000000214270B5002100230F22C47804B3C4
:101C3000154C246804F4E064C4F5E064210AC1F1A1
:101C40000403CA40447804FA03F184781440214321
:101C500009010E4C0678A155047804F01F050124F3
:101C6000AC4005786D11AD0005F1E025C5F80041E7
:101C700009E0047804F01F050124AC40044D067807
:101C8000761145F8264070BD0CED00E000E400E060
:101C900080E100E002490143024A11607047000000
:101CA0000000FA050CED00E07047000029B1064A7B
:101CB000D2690243044BDA6104E0034AD2698243E9
:101CC000014BDA61704700000010024029B1064A5A
:101CD00092690243044B9A6104E0034A9269824389
:101CE000014B9A61704700000010024030B500219E
:101CF0000022002400232D4D6D6805F00C0121B158
:101D0000042905D0082923D105E0294D056022E0EA
:101D1000274D05601FE0254D6D6805F47012234DB9
:101D20006D6805F48034022505EB92421CB9214D03
:101D3000554305600BE01D4D6D6805F400351DB180
:101D40001C4D5543056002E0194D5543056002E006
:101D5000174D056000BF00BF144D6D6805F0F00120
:101D60000909154D6B5C0568DD4045600F4D6D68D8
:101D700005F4E061090A104D6B5C4568DD40856043
:101D80000A4D6D6805F46051C90A0B4D6B5C4568DE
:101D9000DD40C560054D6D6805F44041890B074D78
:101DA0006B5CC568B5FBF3F5056130BD0010024002
:101DB00000127A0000093D000D0000201D000020E7
:101DC00010B5FFF70DFD4720FFF7E2FC00BFFFF75E
:101DD0003DFD0028FBD10120FFF7AEFC064908704D
:101DE0000020FFF7A9FC04494870FFF715FD052006
:101DF00000F0EAFB10BD00002C00002008B5802098
:101E0000ADF8000003208DF8020004208DF80300D7
:101E100069460248FFF7C9FB08BD0000000C0140FD
:101E200008B58020ADF8000003208DF802001020D6
:101E30008DF8030069460248FFF7B7FB08BD0000B4
:101E4000000C014000B589B001210420FFF72EFFEE
:101E500001210920FFF73AFF4FF40070ADF8200090
:101E600018208DF8230003208DF8220008A91348BC
:101E7000FFF79BFBC820ADF8180041F61F40ADF8F6
:101E800014000020ADF81A00ADF8160005A90C48A2
:101E900000F0C6F97020ADF804000120ADF806008E
:101EA0000220ADF80C0001A9054800F07BF90121E2
:101EB000034800F05AF909B000BD0000000C0140D1
:101EC0000008004070B50546002405E0601CC4B25F
:101ED000C82C01DD002070BD02210E4800F028F85A
:101EE0000028F3D029460B4800F02EF8002405E026
:101EF000601CC4B2C82C01DD0020ECE701210548BC
:101F000000F016F80028F3D0024800F01AF8C0B22A
:101F1000E1E700000030014021B1028842F04002B8
:101F2000028004E002884FF6BF731A4002807047B7
:101F30000246002013890B400BB1012000E0002075
:101F400070470146888970478181704710B500222B
:101F5000028802F441520B884C8823438C88234327
:101F6000CC8823430C8923434C8923438C89234306
:101F7000CC8923431A430280838B4FF2FF742340A2
:101F800083830B8A038210BD704710B500F002F8FE
:101F900010BD00000CB5002001900090334800688F
:101FA00040F480303149086000BF3048006800F4D8
:101FB000003000900198401C0190009818B90198D9
:101FC000B0F5A06FF1D12948006800F4003010B1DD
:101FD0000120009001E0002000900098012843D1EA
:101FE0002348006840F01000214908600846006856
:101FF00020F0030008600846006840F00200086016
:102000001A484068194948600846406848600846D0
:10201000406840F4806048600846406820F47C10C6
:1020200048600846406840F4E81048600846006888
:1020300040F08070086000BF0C48006800F000703D
:102040000028F9D00948406820F00300074948609B
:102050000846406840F00200486000BF03484068FE
:1020600000F00C000828F9D10CBD0000001002405F
:102070000020024010B50120FFF78CF90720FFF780
:1020800089F92020FFF786F910BD042808D14FF008
:10209000E021096941F004014FF0E022116107E0FD
:1020A0004FF0E021096921F004014FF0E0221161B5
:1020B0007047704710B51348006840F0010011499F
:1020C000086008464068104908400E4948600846C4
:1020D00000680E4908400B4908600846006820F473
:1020E000802008600846406820F4FE0048604FF4F5
:1020F0001F008860FFF749FF4FF000600449086047
:1021000010BD0000001002400000FFF8FFFFF6FEC7
:1021100008ED00E010B56FF00400FFF7B6FF0920EE
:102120000349087042F228300249086010BD0000DF
:10213000240000202800002010B50121074800F0ED
:1021400020F8012804D106480068401C04490860B2
:102150000121024800F006F810BD00000004004014
:1021600000000020CA430282704721B1028842F079
:102170000102028004E002884FF6FE731A400280DA
:10218000704730B50246002000230024158A05EA76
:102190000103958905EA010413B10CB1012000E0A7
:1021A000002030BD70B5002200230024058C4EF6BF
:1021B000FF7635400584038C8488828B48F6FF7552
:1021C0002A404FF6FF452A400D884FF6FF7606EA73
:1021D00005252A434DF6FF752B400D8906EA053586
:1021E0002B434D8806EA05352B430B4DA84202D000
:1021F0000A4DA84208D14BF6FF752C408D894FF649
:10220000FF7606EA85152C4384808283CD88A0F86A
:102210004050038470BD0000002C01400034014098
:10222000002202881D4B98420ED01D4B98420BD0C5
:10223000B0F1804F08D01B4B984205D01A4B984202
:1022400002D01A4B984204D14FF68F731A404B8834
:102250001A43174B984207D0164B984204D04FF6BA
:10226000FF431A40CB881A4302808B8883850B88F2
:1022700003850A4B98420BD0094B984208D00E4B6D
:10228000984205D00D4B984202D00D4B984201D197
:102290000B7A03860123838270470000002C0140E3
:1022A000003401400004004000080040000C0040E1
:1022B0000010004000140040004001400044014074
:1022C0000048014010B540F225510C4800F040F89C
:1022D00098B140F22551094800F012F8074800F083
:1022E000F3F804462146054800F0F3F800BF40210A
:1022F000024800F020F80128F9D110BD0038014053
:1023000010B50022002340F66A14A14200D100BF9C
:102310000A1201249440A3B2DC43048010BD21B111
:10232000828942F40052828104E082894DF6FF7373
:102330001A408281704702460020B1F5007F00D12B
:1023400000BF13880B400BB1012000E00020704754
:1023500070B50246002400230025002040F66A16CE
:10236000B14200D100BFC1F3421501F01F030126A5
:1023700006FA03F3012D02D19689334006E0022DBF
:1023800002D1168A334001E0968A33400C120126AE
:1023900006FA04F41688344013B10CB1012000E0B1
:1023A000002070BDF0B50346002400260025002063
:1023B00040F66A17B94200D100BF1846C1F3421473
:1023C00001F01F06012707FA06F5012C01D10C3098
:1023D00004E0022C01D1103000E014301AB107687B
:1023E0002F43076002E00768AF430760F0BD0000BD
:1023F0002DE9F04786B005460E460024A24600BFF0
:10240000A1460027B08900B100BF2F462C8A4CF6A8
:10241000FF700440F08804432C82AC894EF6F31020
:102420000440B08831890843718908430443AC8172
:10243000AC8A4FF6FF400440B0890443AC8201A847
:10244000FFF754FC1F48874202D1DDF810A001E0DD
:10245000DDF80CA0A88900F4004040B10AEBCA00E6
:1024600000EB0A1031684900B0FBF1F807E00AEB15
:10247000CA0000EB0A1031688900B0FBF1F8642053
:10248000B8FBF0F004012009642101FB1089A88940
:1024900000F4004040B1322000EBC900B0FBF1F085
:1024A00000F00700044308E0322000EB091064212B
:1024B000B0FBF1F000F00F0004432C8106B0BDE842
:1024C000F08700000038014001468888C0F308000A
:1024D0007047C1F308028280704700BFFEE700002A
:1024E00000B587B001218803FFF7F0FB012104202C
:1024F000FFF7ECFB4FF40070ADF8180003208DF8E7
:102500001A0018208DF81B0006A91F48FFF74DF888
:102510004FF48060ADF8180004208DF81B0006A968
:102520001948FFF742F84FF4E13002900020ADF86F
:102530000C00ADF80E00ADF81000ADF814000C2042
:10254000ADF8120002A91148FFF752FF01210F4810
:10255000FFF7E5FE4FF4A060FFF79CFB012240F27D
:1025600025510A48FFF71EFF25208DF804000220A0
:102570008DF805008DF8060001208DF8070001A8F0
:10258000FFF750FB07B000BD0008014000380140D4
:10259000490050EAC12018BF04204A0D18BF40F07E
:1025A000010040F2FF72B2EB515F08BF40F0020041
:1025B000012808BF0520704730380A2801D20120C1
:1025C00070470020704700000146114A12684A43D4
:1025D0004FF0E0235A6100229A611A46126942F0D4
:1025E00001021A6100BF4FF0E022106900F0010201
:1025F0001AB100F48032002AF5D04FF0E0221269BF
:1026000022F001024FF0E0231A6100229A61704724
:10261000280000200146114A12784A434FF0E02377
:102620005A6100229A611A46126942F001021A6147
:1026300000BF4FF0E022106900F001021AB100F46F
:102640008032002AF5D04FF0E022126922F0010218
:102650004FF0E0231A6100229A61704724000020A5
:1026600008B501210820FFF731FBC020ADF80000BC
:1026700010208DF8030003208DF8020069460548FC
:10268000FEF793FF0120044908600449C1F89C014A
:1026900008BD0000000C01409881214200802142C9
:1026A00090B0FFF7FDF8FFF735FDFFF719FFFFF7D3
:1026B00037F9FFF7C7FBFFF7EFF800203A4908604A
:1026C0006420FFF781FF01203849C1F8B40164207C
:1026D000FFF77AFF0020344908606420FFF774FF99
:1026E00001203249C1F8B40100BFFFF7F3F8002818
:1026F000FBD158E00AE02E48FFF784F90520FFF7E8
:1027000063FF09A8FFF7DEF900B900E0F3E700BFB7
:10271000042228A109A8FDF73EFEB0B9FFF7AAFCE4
:10272000B420FFF751FFFFF74BFBB420FFF74CFF3E
:10273000FEF74AFE2148006800F052FA044622469D
:102740000B461FA102A8FDF74FFD042220A109A8F6
:10275000FDF721FE80B92048FEF7EEFE60B91E4865
:10276000C0781D498978CDE900101B48437802786C
:102770001AA102A8FDF738FD13E00D48FFF7BCF9D8
:102780000520FFF721FF02A8FFF7E6F9202800D176
:1027900008E018480068142803D100201549086093
:1027A00000E0EAE700BFA5E7B401224200002242B0
:1027B000F82C000862683137000000000400002097
:1027C000B9E2C7BFB6C83A252E32660A000000003B
:1027D0006468746C0000000008000020CAAAB6C833
:1027E0003A25642E256409CEC2B6C83A25642E2542
:1027F000640D0A000000002010B500290AD00878F6
:10280000002807D005487844FEF7C0F9002801D019
:10281000002010BD0248784410BD0000BA05000039
:10282000B205000021F00042A2F16052B2F5801F13
:1028300001F0004328BFD2F17F6C0BD95FEA001C86
:1028400043EAC20242EB507018BF704728BF20F025
:1028500001007047B2F5801FBCBF184670474FEAB1
:10286000410C1CF5001F02D2084600F03EBA70B5BC
:1028700000F062F900000089FFF7F6BF4FF000405A
:10288000A0F58000704700002DE9C04130B4DFF8AA
:10289000A0C23CEA111418BF3CEA131400F0EC800B
:1028A00081EA03051CEA111444EAD57418BF1CEA36
:1028B000131500F0C780A4EB05044FF0004545EA6E
:1028C000C12145EAC32341EA505143EA525304F17E
:1028D0007F74994204F500344FEAC0204FEAC222C7
:1028E00008BF904200F09C804FEA13650FF240163B
:1028F000765D4FEA134506FB05F7C7F1807706FBC7
:1029000007F74FEAD737A7FB03687642C8F5803848
:10291000A7FB06CE38BFA8F1010807FB08E64FF079
:10292000000EA6FB028CE6FB03CEDCF1000CCEF120
:10293000004E38BFAEF1010EA6FB0C584FF0000759
:102940004FF00005E6FB0E87A1FB08C6A0FB07CEF3
:1029500016EB0E0645F10005E1FB076515F1E04EAB
:102960007EBFA4F580345FEA46066D4116F180070C
:1029700045F100054FEA17274FEA066647EA056763
:10298000A6F1DE46B6F1805F4FEA15251FD938461D
:1029900024F0010C05EBC471BCF1FE6F01EB0C11CE
:1029A00002D8F0BCBDE8008124425CBF01F5801E66
:1029B0009EEAC47F02D4F0BCBDE80081244238D432
:1029C000F0BCA1F1C041BDE8004100F003B94FEAFD
:1029D000D22242EA43524FEAD323A7FB02864FEAB0
:1029E000D02040EA415007FB03661EEA0E0F4FEA73
:1029F000D12105FB026658BFA6EB0056B6EB005688
:102A00004FEA520E4EEAC37E18EB0E0E56EB530EF3
:102A1000BDD518EB02085E417F1C55F10005B6E7F5
:102A20004FF480154FF000074FF000064FF00008FC
:102A3000ADE7F0BC4FF0000001F1C04101F00041F2
:102A4000BDE8008111EA0C1F0CEA131500D00CE060
:102A500013EA0C1F00F025804FF00000F0BC81EA63
:102A6000030101F00041BDE80081F0BCBDE8004178
:102A700081EA030100F0AEB8F0BCBDE8004170B5DA
:102A800000F05AF8097EFC3E00F007B881EA030125
:102A90004FF0000001F00041704781EA030100F0AF
:102AA00099B8F0BCBDE800414FF0000021497047E3
:102AB000FFFDFBF9F7F5F4F2F0EEEDEBE9E8E6E403
:102AC000E3E1E0DEDDDBDAD8D7D5D4D3D1D0CFCD8A
:102AD000CCCBCAC8C7C6C5C4C2C1C0BFBEBDBCBBC3
:102AE000BAB9B8B7B6B5B4B3B2B1B0AFAEADACABBE
:102AF000AAA9A8A8A7A6A5A4A3A3A2A1A09F9F9E98
:102B00009D9C9C9B9A999998979796959594939349
:102B1000929191908F8F8E8E8D8C8C8B8B8A8989E0
:102B20008888878786858584848383828281818063
:102B30000000FF070000F87F0EF1020E2EF0030EDA
:102B40005EF8046B364205D4012A43EB030515F504
:102B5000001F12D8012841EB010C1CF5001F0CD8F6
:102B60000ED14FEAD17C15F5001F0CEB4C0C0CF18B
:102B7000020C08BF4CEBD37C04E04FF0080C01E0E2
:102B80004FEAD37C0CEB4C0526FA05F606F0070657
:102B9000B6F1040C06D20EEB860CBDE870404CF08A
:102BA000010C6047DFE80CF0090B02024FF0004116
:102BB0004FF00000A1F5002170BD19461046012814
:102BC00051EB010418BFD4F5001484BF002001F0BC
:102BD000004170BD0808A0F500114FEA31017047AF
:102BE00043004FEAD30C4FEA3C0C43401FBF400761
:102BF0000CF1605113F0FE4F70471CF0006F03D1D1
:102C000000200CF0004170470CF0004343EA507084
:102C100010B540EACC0000F022F800BF000000929E
:102C20004FEA0001FFF7D6BF4FF000414FF0000020
:102C3000A1F5002170470000B0FA80F310FA03F20A
:102C4000C3F19D030AD0D90501EB1220530638BF0A
:102C5000704700F1010008BF20F0010070470EF13D
:102C6000020E2EF0030E5EF8044B244204D44FEA09
:102C70004102B2F17F4F11D84FEA4003B3F17F4FC9
:102C80000CD80ED14FEAD07CB2F17F4F0CEB4C0C3C
:102C90000CF1020C08BF4CEBD17C04E04FF0080CA7
:102CA00001E04FEAD17C0CEB4C0324FA03F404F06E
:102CB0000704B4F1040C06D20EEB840CBDE81040FE
:102CC0004CF0010C6047DFE80CF0070802024FF0FF
:102CD0000040A0F5800010BD0846420018BFD2F1A8
:102CE000807288BF00F0004010BDFF2141EAD05043
:102CF000C0057047FDF7CDBC3443101001431001EF
:102D0000010234431010034310010104024000008B
:102D1000000000A00000000005400000000000C806
:102D2000000000000C4000000000409C000000007B
:102D3000194000000020BCBE00000000344000002C
:102D4000BFC91B8E00000004B5400000504BCFD01F
:102D50006607E2CF010000006C4100003E8251AAEC
:102D6000DFEEA73401000000D9420000DCB5A0E28C
:102D70003A301F97FFFFFFFFB4450000FD25A0C8B4
:102D8000E9A3C14FFFFFFFFFFF3F000000000080ED
:102D900000000000FF3F0000000000800000000075
:102DA000DC2D000800000020300000002801000891
:102DB0000C2E0008300000207806000044010008B6
:102DC0001C00000043000000F8FFFFFF0C000000A3
:102DD0000E0000000F0000002E00000000000000A8
:102DE00000000000000000000000000000010203DD
:102DF0000401020304060708090204060800000093
:0C2E0000000000000000000000000000C6
:04000005080000ED02
:00000001FF
