:020000040800F2
:1000000098060020890100088D04000857040008A4
:1000100089040008370300087F1000080000000072
:10002000000000000000000000000000C10A0008FD
:100030003B0300080000000065080008D50B00081D
:10004000A3010008A3010008A3010008A301000800
:10005000A3010008A3010008A3010008A3010008F0
:10006000A3010008A3010008A3010008A3010008E0
:10007000A3010008A3010008A3010008A3010008D0
:10008000A3010008A3010008A3010008A3010008C0
:10009000A3010008A3010008A3010008A3010008B0
:1000A000A3010008A3010008A3010008A3010008A0
:1000B000A30100085D0C0008A3010008A3010008CB
:1000C000A3010008A3010008A3010008A301000880
:1000D000A3010008690E0008A3010008A30100089D
:1000E000A3010008A3010008A301000800F002F822
:1000F00000F03AF80AA090E8000C82448344AAF188
:100100000107DA4501D100F02FF8AFF2090EBAE885
:100110000F0013F0010F18BFFB1A43F0010318473B
:10012000C0110000E0110000103A24BF78C878C167
:10013000FAD8520724BF30C830C144BF04680C60ED
:10014000704700000023002400250026103A28BF35
:1001500078C1FBD8520728BF30C148BF0B60704739
:100160001FB51FBD10B510BD00F0AEF81146FFF76A
:10017000F7FF01F005F800F0CCF803B4FFF7F2FF49
:1001800003BC00F0D1F80000094880470948004747
:10019000FEE7FEE7FEE7FEE7FEE7FEE7FEE7FEE737
:1001A000FEE7FEE704480549054A064B7047000094
:1001B000D90B0008ED0000089800002098060020E8
:1001C000980200209802002040EA010370B59B07C6
:1001D0002ED14FF00136042A2AD308C810C99D1B1E
:1001E0009D43121F15EAC61517D0D8B2E1B2401AC6
:1001F00050EA056110D198B2A1B2401A50EA054107
:100200000AD123F07F4024F07F41401A50EA0521B3
:1002100002D1180EA0EB146070BDA342DBD018BA57
:1002200021BA884201D9012070BD4FF0FF3070BD66
:100230000AB9002070BD10F8013B11F8014B63B101
:10024000A3420AD1521E08D010F8013B11F8014B0D
:100250001BB1A34201D1521EEDD1181B70BD10B5C8
:10026000203AC0F00B80B1E81850203AA0E81850AE
:10027000B1E81850A0E81850BFF4F5AF5FEA027C6F
:1002800024BFB1E81850A0E8185044BF18C918C0DE
:10029000BDE810405FEA827C24BF51F8043B40F87F
:1002A000043B08BF7047D20728BF31F8023B48BF64
:1002B00011F8012B28BF20F8023B48BF00F8012BA2
:1002C0007047704770477047754600F029F8AE4692
:1002D00005006946534620F00700854618B020B552
:1002E000FFF760FFBDE820404FF000064FF0000729
:1002F0004FF000084FF0000B21F00701AC46ACE8CE
:10030000C009ACE8C009ACE8C009ACE8C0098D463A
:1003100070470446AFF300802046FFF72EFF000031
:10032000004870473400002001491820ABBEFEE7AA
:1003300026000200704700BFFEE770472DE9F0413C
:10034000024600250026002000230024002791F803
:1003500003C00CF00F0591F803C00CF0100CBCF1B9
:10036000000F03D091F802C04CEA050591F800C0D7
:10037000BCF1000F31D0146800202BE04FF0010CCD
:100380000CFA00F3B1F800C00CEA03069E4220D13B
:1003900083004FF00F0C0CFA03F7BC4305FA03FC83
:1003A0004CEA040491F803C0BCF1280F06D14FF0C9
:1003B000010C0CFA00FCC2F814C00AE091F803C06A
:1003C000BCF1480F05D14FF0010C0CFA00FCC2F84B
:1003D00010C0401C0828D1D31460B1F800C0BCF193
:1003E000FF0F34DD546800202EE000F1080C4FF0C0
:1003F000010808FA0CF3B1F800C00CEA03069E42AB
:1004000021D183004FF00F0C0CFA03F7BC4305FA1F
:1004100003FC4CEA040491F803C0BCF1280F05D199
:1004200000F1080C08FA0CF8C2F8148091F803C027
:10043000BCF1480F07D100F1080C4FF0010808FA91
:100440000CF8C2F81080401C0828CED35460BDE8D8
:10045000F0810161704700BFFEE7000008B501218F
:10046000102000F011FA4FF40050ADF80000032006
:100470008DF8020010208DF8030069460148FFF74F
:100480005DFF08BD0010014000BFFEE7704700009F
:100490001CB510A103C9CDE9000105226946302031
:1004A00000F068F905226946102000F0B5F8002434
:1004B00006E01DF80400AA2800D003E0601CC4B2C6
:1004C000052CF6DB00BF052C01D001201CBD00204F
:1004D000FCE70000AAAAAAAAAA00000008B5012108
:1004E00041F2040000F0D0F9E020ADF8000018203F
:1004F0008DF8030003208DF8020069462B48FFF7B2
:100500001DFFE0212948FFF7A4FF1020ADF80000EF
:100510008DF8030003208DF8020069462348FFF799
:100520000DFF10212148FFF794FF0420ADF80000D3
:1005300010208DF8030003208DF8020069461B4847
:10054000FFF7FCFE0220ADF8000048208DF8030004
:1005500003208DF8020069461448FFF7EFFE1221D0
:100560001248FFF776FF0020114908804FF482708F
:10057000488000208880C88008814FF4007048813E
:10058000102088810020C88107200882094800F0D7
:1005900079FA0121074800F05BFA0020064908605B
:1005A00001200649C1F8900108BD00000008014083
:1005B000200000200030014088012142000021423B
:1005C00010B50446002012490860052221462A2061
:1005D00000F0D0F80121212000F0EAF801212220CA
:1005E00000F0E6F82821252000F0E2F82021312053
:1005F00000F0DEF80F21262000F0DAF80F2120208D
:1006000000F0D6F801200349C1F8880110BD0000B0
:1006100088012142000021422DE9F04107460D46A4
:10062000164600200A490860384600F0E7F980467F
:10063000002405E0FF2000F0E1F92855601CC4B259
:10064000B442F7DB0120024908604046BDE8F08172
:100650009001214270B504460020074908602046F9
:1006600000F0CCF9FF2000F0C9F90546012003494C
:10067000C1F89001284670BD90012142000021423E
:1006800070B504460720FFF7E5FF054629462720F9
:1006900000F08EF805F0400050B120222146612084
:1006A000FFF7BAFFFF21E22000F082F8002070BDC2
:1006B0000120FCE710B5044600201449086005221B
:1006C0002146302000F056F8052221462A2000F06D
:1006D00051F80121212000F06BF80121222000F0C7
:1006E00067F81A21242000F063F82821252000F063
:1006F0005FF80F21262000F05BF80E21202000F08B
:1007000057F801200249C1F8880110BD8801214233
:100710000000214270B505460020144908602022DF
:100720002946A02000F026F801201149C1F88801CF
:1007300000BF0E48843800680028FAD10720FFF770
:1007400089FF04462146272000F032F804F010000B
:1007500028B1FF21E12000F02BF8102070BD04F03B
:10076000200008B12020F9E7FF20F7E788012142A7
:10077000000021422DE9F04107460C4615460020B5
:100780000A490860384600F039F98046002605E03D
:1007900014F8010B00F032F9701CC6B2AE42F7DB60
:1007A0000120024908604046BDE8F08190012142E5
:1007B00070B505460C46002007490860284600F041
:1007C0001DF90646204600F019F901200349C1F839
:1007D0009001304670BD000090012142000021428E
:1007E00070B5002100230F22C47804B3154C24688F
:1007F00004F4E064C4F5E064210AC1F10403CA40D2
:10080000447804FA03F184781440214309010E4C22
:100810000678A155047804F01F050124AC40057842
:100820006D11AD0005F1E025C5F8004109E004783F
:1008300004F01F050124AC40044D0678761145F8FC
:10084000264070BD0CED00E000E400E080E100E037
:1008500002490143024A1160704700000000FA0596
:100860000CED00E07047000029B1064AD26902434E
:10087000044BDA6104E0034AD2698243014BDA6136
:10088000704700000010024029B1064A92690243F5
:10089000044B9A6104E0034A92698243014B9A61D6
:1008A000704700000010024030B5002100220024F3
:1008B00000232D4D6D6805F00C0121B1042905D0F0
:1008C000082923D105E0294D056022E0274D056068
:1008D0001FE0254D6D6805F47012234D6D6805F419
:1008E0008034022505EB92421CB9214D5543056029
:1008F0000BE01D4D6D6805F400351DB11C4D5543D1
:10090000056002E0194D5543056002E0174D056092
:1009100000BF00BF144D6D6805F0F0010909154DC9
:100920006B5C0568DD4045600F4D6D6805F4E06166
:10093000090A104D6B5C4568DD4085600A4D6D68A5
:1009400005F46051C90A0B4D6B5C4568DD40C5601C
:10095000054D6D6805F44041890B074D6B5CC5681A
:10096000B5FBF3F5056130BD0010024000127A00BE
:1009700000093D00040000201400002000B589B0EB
:1009800001210420FFF770FF01210920FFF77CFF00
:100990004FF40070ADF8200018208DF823000320DC
:1009A0008DF8220008A91348FFF7C8FCC820ADF84D
:1009B000180041F61F40ADF814000020ADF81A00F1
:1009C000ADF8160005A90C4800F0FCF97020ADF850
:1009D00004000120ADF806000220ADF80C0001A9CA
:1009E000054800F0ADF90121034800F082F909B093
:1009F00000BD0000000C01400008004070B5054635
:100A0000002405E0601CC4B2C82C01DD002070BDCC
:100A100002210E4800F028F80028F3D029460B48A0
:100A200000F02EF8002405E0601CC4B2C82C01DDE3
:100A30000020ECE70121054800F016F80028F3D06B
:100A4000024800F01AF8C0B2E1E7000000300140AF
:100A500021B1028842F04002028004E002884FF691
:100A6000BF731A40028070470246002013890B4072
:100A70000BB1012000E000207047014688897047D3
:100A80008181704710B50022028802F441520B8820
:100A90004C8823438C882343CC8823430C892343ED
:100AA0004C8923438C892343CC8923431A430280F6
:100AB000838B4FF2FF74234083830B8A038210BD24
:100AC000704710B500F002F810BD00000CB5002012
:100AD000019000903348006840F48030314908604C
:100AE00000BF3048006800F4003000900198401CBE
:100AF0000190009818B90198B0F5A06FF1D129487C
:100B0000006800F4003010B10120009001E00020E6
:100B100000900098012843D12348006840F010005D
:100B2000214908600846006820F003000860084674
:100B3000006840F0020008601A484068194948609F
:100B40000846406848600846406840F48060486055
:100B50000846406820F47C1048600846406840F42D
:100B6000E81048600846006840F08070086000BFE8
:100B70000C48006800F000700028F9D0094840686F
:100B800020F00300074948600846406840F0020032
:100B9000486000BF0348406800F00C000828F9D105
:100BA0000CBD00000010024000200240042808D1C3
:100BB0004FF0E021096941F004014FF0E02211619A
:100BC00007E04FF0E021096921F004014FF0E02235
:100BD000116170477047000010B51348006840F07D
:100BE00001001149086008464068104908400E4954
:100BF0004860084600680E4908400B4908600846EE
:100C0000006820F4802008600846406820F4FE0058
:100C100048604FF41F008860FFF753FF4FF00060FB
:100C20000449086010BD0000001002400000FFF8F9
:100C3000FFFFF6FE08ED00E010B56FF00400FFF7CF
:100C4000B5FF09200349087042F2283002490860C4
:100C500010BD0000180000201C00002010B501216C
:100C6000074800F052F8012804D106480068401CEB
:100C7000044908600121024800F038F810BD000066
:100C800000040040000000201FB501210220FFF7F2
:100C9000EBFD42F20F70ADF8080041F61F40ADF8D1
:100CA00004000020ADF80A00ADF8060001A90E48C6
:100CB00000F088F8012211460B4800F037F81D209B
:100CC0008DF8000000208DF8010003208DF802004F
:100CD00001208DF803006846FFF782FD01210248DC
:100CE00000F007F81FBD000000040040CA43028264
:100CF000704721B1028842F00102028004E00288BC
:100D00004FF6FE731A400280704730B5024600204D
:100D100000230024158A05EA0103958905EA0104E8
:100D200013B10CB1012000E0002030BD1AB183895D
:100D30000B43838102E083898B43838170470000EA
:100D400070B5002200230024058C4EF6FF76354056
:100D50000584038C8488828B48F6FF752A404FF601
:100D6000FF452A400D884FF6FF7606EA05252A43FF
:100D70004DF6FF752B400D8906EA05352B434D884E
:100D800006EA05352B430B4DA84202D00A4DA84276
:100D900008D14BF6FF752C408D894FF6FF7606EA99
:100DA00085152C4384808283CD88A0F8405003842D
:100DB00070BD0000002C014000340140A0F840103C
:100DC00070470000002202881D4B98420ED01D4B38
:100DD00098420BD0B0F1804F08D01B4B984205D001
:100DE0001A4B984202D01A4B984204D14FF68F7397
:100DF0001A404B881A43174B984207D0164B98421B
:100E000004D04FF6FF431A40CB881A4302808B88E8
:100E100083850B8803850A4B98420BD0094B984277
:100E200008D00E4B984205D00D4B984202D00D4B86
:100E3000984201D10B7A0386012383827047000018
:100E4000002C014000340140000400400008004034
:100E5000000C004000100040001400400040014021
:100E6000004401400048014010B540F225510C48B3
:100E700000F040F898B140F22551094800F012F80E
:100E8000074800F0F3F804462146054800F0F3F85F
:100E900000BF4021024800F020F80128F9D110BD20
:100EA0000038014010B50022002340F66A14A14228
:100EB00000D100BF0A1201249440A3B2DC43048095
:100EC00010BD21B1828942F40052828104E08289FE
:100ED0004DF6FF731A408281704702460020B1F53B
:100EE000007F00D100BF13880B400BB1012000E050
:100EF0000020704770B50246002400230025002022
:100F000040F66A16B14200D100BFC1F3421501F0AC
:100F10001F03012606FA03F3012D02D196893340FF
:100F200006E0022D02D1168A334001E0968A334052
:100F30000C12012606FA04F41688344013B10CB1E1
:100F4000012000E0002070BDF0B50346002400261B
:100F50000025002040F66A17B94200D100BF1846AC
:100F6000C1F3421401F01F06012707FA06F5012C10
:100F700001D10C3004E0022C01D1103000E014301B
:100F80001AB107682F43076002E00768AF430760A4
:100F9000F0BD00002DE9F04786B005460E4600245E
:100FA000A24600BFA1460027B08900B100BF2F466E
:100FB0002C8A4CF6FF700440F08804432C82AC89E4
:100FC0004EF6F3100440B088318908437189084314
:100FD0000443AC81AC8A4FF6FF400440B08904431F
:100FE000AC8201A8FFF760FC1F48874202D1DDF800
:100FF00010A001E0DDF80CA0A88900F4004040B189
:101000000AEBCA0000EB0A1031684900B0FBF1F8A6
:1010100007E00AEBCA0000EB0A1031688900B0FB58
:10102000F1F86420B8FBF0F004012009642101FB11
:101030001089A88900F4004040B1322000EBC900BB
:10104000B0FBF1F000F00700044308E0322000EBB1
:1010500009106421B0FBF1F000F00F0004432C8173
:1010600006B0BDE8F08700000038014001468888DE
:10107000C0F308007047C1F308028280704700BFC8
:10108000FEE7000000B587B001218803FFF7FCFBF5
:1010900001210420FFF7F8FB4FF40070ADF81800B1
:1010A00003208DF81A0018208DF81B0006A91F4890
:1010B000FFF744F94FF48060ADF8180004208DF874
:1010C0001B0006A91948FFF739F94FF4E1300290E7
:1010D0000020ADF80C00ADF80E00ADF81000ADF832
:1010E00014000C20ADF8120002A91148FFF752FFBE
:1010F00001210F48FFF7E5FE4FF4A060FFF7A8FBC2
:10110000012240F225510A48FFF71EFF25208DF8E5
:10111000040002208DF805008DF8060001208DF8EE
:10112000070001A8FFF75CFB07B000BD0008014005
:10113000003801400146114A12684A434FF0E0234B
:101140005A6100229A611A46126942F001021A613C
:1011500000BF4FF0E022106900F001021AB100F464
:101160008032002AF5D04FF0E022126922F001020D
:101170004FF0E0231A6100229A6170471C000020A2
:101180008EB01C2242496846FFF769F8FFF766F9FE
:10119000FFF752FDFFF776FFFFF7A0F9FFF7EEFB31
:1011A000FFF772FD00203B4908606420FFF7C2FF93
:1011B00001203949C1F8B4016420FFF7BBFF0020CA
:1011C000344908606420FFF7B5FF01203249C1F8B7
:1011D000B40100BFFFF75CF90028FBD157E00AE03B
:1011E0002E48FFF7EDF90520FFF7A4FF07A8FFF74A
:1011F00047FA00B900E0F3E700BF042228A107A8DE
:10120000FEF7E2FF98B906212748FFF7D7FD4FF414
:101210007A70FFF78FFF0F212348FFF7CFFD40F6CD
:10122000B830FFF787FF06211F48FFF7C7FD2CE006
:101230001A48FFF73FFA0520FFF77CFF6846FFF7E3
:1012400069FA202800D121E0184800680A281CDD2E
:101250000020104908604FF4FA70FFF76BFF01207F
:101260000D49C1F8B4014FF4FA70FFF763FF002095
:10127000084908604FF4FA70FFF75CFF0120054948
:10128000086000200949086000E0D1E700BFA6E738
:10129000C4120008B401224200002242B512000824
:1012A0007367393000000000000800400000002093
:1012B0003443101001431001010234431010034362
:1012C00010010104646F6F72206F70656E00000082
:1012D000000000000000000000000000000000000E
:1012E0000013000800000020200000002801000872
:1012F00020130008200000207806000044010008A8
:1013000000000000000000000102030401020304C9
:10131000060708090204060800000000000000009B
:04000005080000ED02
:00000001FF
