:020000040800F2
:10000000D8100020DD010008D10D0008470D0008C0
:10001000CD0D0008710600089B19000800000000C3
:10002000000000000000000000000000B113000804
:100030007506000800000000C5110008C51400087E
:10004000F7010008F7010008F7010008F7010008B0
:10005000F7010008F7010008F7010008F7010008A0
:10006000F7010008F7010008F7010008F701000890
:10007000F7010008F7010008F7010008F701000880
:10008000F7010008F7010008F7010008F701000870
:10009000F7010008F7010008F7010008F701000860
:1000A000F7010008F7010008F7010008F701000850
:1000B000F701000829150008F7010008F7010008FA
:1000C000F7010008F7010008F7010008F701000830
:1000D000F7010008B1160008ED160008F701000846
:1000E000F7010008F7010008F7010008F701000810
:1000F000F7010008F7010008F7010008F701000800
:10010000F7010008F7010008F7010008F7010008EF
:10011000F7010008F7010008F7010008F7010008DF
:10012000F7010008F7010008F7010008F7010008CF
:1001300000F002F800F042F80AA090E8000C8244B7
:100140008344AAF10107DA4501D100F037F8AFF294
:10015000090EBAE80F0013F0010F18BFFB1A43F0A5
:1001600001031847141C0000341C0000103A24BF7F
:1001700078C878C1FAD8520724BF30C830C144BF0C
:1001800004680C607047000000230024002500264E
:10019000103A28BF78C1FBD8520728BF30C148BFEA
:1001A0000B607047642900F0B980732900F0F98171
:1001B000002070471FB51FBD10B510BD00F00CFA30
:1001C0001146FFF7F7FF01F0A1FC00F02AFA03B493
:1001D000FFF7F2FF03BC01F05EFC00000948804716
:1001E00009480047FEE7FEE7FEE7FEE7FEE7FEE719
:1001F000FEE7FEE7FEE7FEE704480549054A064B31
:1002000070470000C914000831010008D80A002016
:10021000D8100020D80C0020D80C00207047000017
:100220000FB4044910B503AA029800F0BFF910BC3E
:100230005DF814FB1C0000200FB41CB5074B06AA88
:100240007B4469460090059800F081F900206946DA
:1002500000F090F91CBC5DF814FB000031030000B5
:100260002DE9F0410E460446002020622046E16858
:10027000884730B3252805D0D4E901219047206A6A
:10028000401CF2E7E168204600278847050018D0A7
:10029000A5F14100192802D820354FF400673246F5
:1002A000294620462760FFF77DFF40B1012804D092
:1002B000F61D26F007060836D8E7361DD6E728468D
:1002C000DAE7206ABDE8F08170B50C460546012AE0
:1002D00005D02878800600D5EA69002302E00123D2
:1002E00005E05B1C934202D2E05C0028F9D1A869CA
:1002F000E618C01AA861286A184428622846AFF395
:10030000008004E0D5E9012114F8010B9047B442C4
:10031000F8D32846AFF3008070BD00002DE9F0410E
:100320000646002410687529314616A510D0AFF393
:100330000080002802DA404213A507E031688A07EE
:1003400001D512A502E0490704D511A5012401E059
:10035000AFF3008000210A2206F1240709E0B0FB78
:10036000F2FCB0FBF2F302FB1C003030785418466C
:10037000491C0028F3D123462A463046BDE8F04107
:1003800000F086B8000000002D0000002B000000E7
:100390002000000030B505460B462A4613F8014BF5
:1003A00012F8010B08B1A042F8D01CB1002802D00D
:1003B0006D1CF1E7284630BD10B5431C02E010F873
:1003C000011B71B18107FAD14FF0013202C88C1ABA
:1003D0008C4314EAC211F9D0C01A0A0603D0C01E19
:1003E00010BDC01A10BD0A0401D0801E10BD090244
:1003F000FCD0401E10BD4FF000020429C0F0128056
:1004000010F0030C00F01B80CCF1040CBCF1020FC7
:1004100018BF00F8012BA8BF20F8022BA1EB0C019C
:1004200000F00DB85FEAC17C24BF00F8012B00F892
:10043000012B48BF00F8012B70474FF0000200B5B8
:10044000134694469646203922BFA0E80C50A0E8F7
:100450000C50B1F12001BFF4F7AF090728BFA0E8A5
:100460000C5048BF0CC05DF804EB890028BF40F871
:10047000042B08BF704748BF20F8022B11F0804FB3
:1004800018BF00F8012B70477047704770477047DE
:100490002DE9F0470D4699469246044600F124089E
:1004A0000168880604D5E06921F01001216000E0B0
:1004B0000120A84201DD471B00E00027A1697A194D
:1004C00002EB0900081AA0612078C00602D4204679
:1004D000AFF30080002608E0D4E901211AF80600F5
:1004E0009047206A401C761C20624E45F4DB207841
:1004F000C0060AD52046AFF3008006E0D4E901210A
:1005000030209047206A401C2062381EA7F1010766
:10051000F4DC07E0D4E9012118F805009047206ACF
:10052000401C2062281EA5F10105F3DC2046AFF334
:1005300000802078000602D50220BDE8F087012067
:10054000FBE7000001694A1C02610878704700B5AA
:100550008FB0CDE901310021059105497944CDE9FC
:10056000031011466846FFF77BFE0FB000BD000088
:10057000E5FFFFFF0A6802F8010B0A60704710B53B
:10058000436913B1AFF3008001E0FFF79DFE012046
:1005900010BD127800F124010A7000224A70012275
:1005A000EDE711684FF0FF32E9E70000074B70B547
:1005B0000D467B44FFF7CBFF0446284600F008F8C1
:1005C00010B14FF0FF3070BD204670BD33150000F4
:1005D000007B00F080007047754600F029F8AE46B9
:1005E00005006946534620F00700854618B020B53F
:1005F000FFF702FEBDE820404FF000064FF0000775
:100600004FF000084FF0000B21F00701AC46ACE8BA
:10061000C009ACE8C009ACE8C009ACE8C0098D4627
:1006200070470446AFF300802046FFF7D0FD00007E
:1006300000487047740A002008B50121082000F026
:10064000D3FD4FF48070ADF8000010208DF803004A
:1006500003208DF802006946044800F0E5FA4FF4E3
:100660008071024800F06BFB08BD0000000C0140E7
:1006700000BFFEE77047000010B56FF0040000F007
:100680000DFF0A4800680A49B0FBF1F009490870FB
:100690000846007800EB4001C1EBC0104FF6FF7137
:1006A00001EAC0000449088010BD000008000020D5
:1006B00000127A00360000203800002010B5002417
:1006C0000CA0FFF7ADFD4FF4FA7001F0E7F90DE073
:1006D0004FF4FA7300220EA10EA000F0EBF908B15E
:1006E000012010BD00F024F9601CC4B20A2CEFDB1D
:1006F0000020F6E7BFAACABCB2E2CAD420455350D4
:1007000038323636202E2E2E2E2E2E2E2E0D0A006C
:100710004F4B000041540D0A0000000010B586B098
:1007200004460CB1012000E00020024606A101A809
:10073000FFF782FD4FF4FA73002207A101A800F031
:10074000B9F906B010BD000041542B4349504D5536
:10075000583D25640D0A00004F4B000010B54FF4C2
:100760007A7001F09BF9032103A001F085F94FF4A1
:10077000FA7001F093F910BD2B2B2B0010B54FF43C
:10078000E13001F017F9FFF7E9FFFFF797FF18B124
:1007900004A0FFF745FD02E007A0FFF741FD00F0D0
:1007A000E9F910BD4553503832363620546573741C
:1007B000204F4B210A000000455350383236362076
:1007C000546573742046414C5345210A00000000D3
:1007D00030B59FB004460D462B46224606A101A81F
:1007E000FFF72AFD41F28833002209A101A800F099
:1007F00061F91FB030BD000041542B43574A4150AE
:100800003D222573222C222573220D0A00000000B0
:100810004F4B000070B5B8B005460E461446642133
:100820001FA8FFF70AFE15B1012D10D107E03346CE
:100830000FA210A11FA80094FFF7FEFC08E03346AA
:1008400010A20CA11FA80094FFF7F6FC00E000BF67
:1008500000BF1FAA0CA101A8FFF7EEFC4FF47A63BA
:100860000DA211A101A800F025F938B070BD00005B
:1008700054435000222573222C222573222C2564F8
:100880000D0A00005544500041542B434950535425
:100890004152543D25730000414C5245415920437B
:1008A0004F4E4E45435400004F4B000010B50446D8
:1008B00024B1012C0AD0022C18D10FE04FF4FA73A6
:1008C0000BA20EA10EA000F0F5F810BD4FF4FA73C4
:1008D00007A20AA10EA000F0EDF8F6E74FF4FA73B4
:1008E00003A206A10EA000F0E5F8EEE70020ECE779
:1008F0006E6F206368616E67650000004F4B0000FB
:1009000041542B43574D4F44453D310D0A000000E3
:1009100041542B43574D4F44453D320D0A000000D2
:1009200041542B43574D4F44453D330D0A000000C1
:1009300000B585B006A16846FFF77EFC41F288331A
:10094000002206A1684600F0B5F805B000BD000021
:1009500041542B5253540D0A00000000726561642B
:100960007900000010B515A0FFF75AFC00BF002069
:10097000FFF79CFF0028FAD0FFF7DAFF00BF002046
:10098000FFF7CCFE0028FAD000BF14A116A0FFF795
:100990001FFF0028F9D000BF4CF2513215A10020F2
:1009A000FFF738FF0028F7D002E016A0FFF738FC69
:1009B000012000F0EDF80028F7D010BD0D0AD5FD9C
:1009C000D4DAC5E4D6C32045535038323636202E0B
:1009D0002E2E2E2E2E2E2E2E0D0A0000706F7975C3
:1009E00034333936373000006A6C64736A61666C80
:1009F000000000003131322E37342E33372E3133A0
:100A0000320000000D0AC5E4D6C3204553503832E9
:100A1000363620CDEAB1CF0D0A0000002DE9F041B5
:100A2000FEB005460E4617460DB33046FFF7C4FC30
:100A30000446052F06DA23463A4612A101A8FFF71D
:100A4000FBFB03E014A101A8FFF7F6FB4FF47A7358
:100A5000002215A101A800F02DF84FF47A730022AE
:100A600012A1304600F026F87EB0BDE8F081304695
:100A7000FFF7A2FC1FFA80F84146304600F0FCFF69
:100A80000120F1E741542B43495053454E443D2545
:100A9000642C25640D0A000041542B4349505345F2
:100AA0004E440D0A000000003E20000053454E4415
:100AB000204F4B002DE9F04106460C4615461F46D7
:100AC000314622A0FFF7ACFB3046FFF775FC1FFA5A
:100AD00080F84146304600F0CFFF1CB915B901201F
:100AE000BDE8F081B8B200F0D9FF194A222119A05F
:100AF000FFF796FBB4B1ADB121461548FFF74AFCAC
:100B000008B1012000E0002040B929461048FFF755
:100B100041FC08B1012000E0002008B10120DFE71E
:100B20000020DDE744B121460948FFF733FC08B156
:100B30000120D5E70020D3E729460548FFF72AFC26
:100B400008B10120CCE70020CAE7000025730A00A5
:100B50006E080020455350383236365F53656E6458
:100B60005F41545F436D645B25645DA3BA25730ADE
:100B70000A00000010B5FFF7F5FE052202A10120D2
:100B8000FFF74CFF10BD0000746573740000000097
:100B900010B586B0044614B1012C1BD10DE02246DD
:100BA0000DA101A8FFF748FB4FF4FA7300220EA134
:100BB00001A8FFF77FFF06B010BD224606A101A8DD
:100BC000FFF73AFB4FF4FA73002207A101A8FFF7E1
:100BD00071FFF0E70020EEE741542B4349504D4FA1
:100BE00044453D25640D0A004F4B000008B54FF405
:100BF0000070ADF8000018208DF8030003208DF878
:100C000002006946074800F00FF84FF48060ADF825
:100C1000000004208DF803006946024800F004F843
:100C200008BD0000000801402DE9F0410246002502
:100C30000026002000230024002791F803C00CF0B8
:100C40000F0591F803C00CF0100CBCF1000F03D09D
:100C500091F802C04CEA050591F800C0BCF1000F04
:100C600031D0146800202BE04FF0010C0CFA00F397
:100C7000B1F800C00CEA03069E4220D183004FF079
:100C80000F0C0CFA03F7BC4305FA03FC4CEA04040E
:100C900091F803C0BCF1280F06D14FF0010C0CFAFB
:100CA00000FCC2F814C00AE091F803C0BCF1480F80
:100CB00005D14FF0010C0CFA00FCC2F810C0401C2A
:100CC0000828D1D31460B1F800C0BCF1FF0F34DDA7
:100CD000546800202EE000F1080C4FF0010808FADB
:100CE0000CF3B1F800C00CEA03069E4221D1830048
:100CF0004FF00F0C0CFA03F7BC4305FA03FC4CEA67
:100D0000040491F803C0BCF1280F05D100F1080CD0
:100D100008FA0CF8C2F8148091F803C0BCF1480F2F
:100D200007D100F1080C4FF0010808FA0CF8C2F8DE
:100D30001080401C0828CED35460BDE8F08141618A
:100D400070470161704700BFFEE7000008B5012150
:100D5000402000F049FA1C20ADF8000004208DF876
:100D6000030003208DF8020069460248FFF75CFF8C
:100D700008BD00000018014008B50121482000F01E
:100D800033FA6020ADF8000010208DF80300032036
:100D90008DF8020069460848FFF746FF6946074894
:100DA000FFF742FF0120064908600649C1F8940197
:100DB0000549086008BD0000000C01400018014012
:100DC00094812142000023429801234200BFFEE7A4
:100DD000704700001CB510A103C9CDE90001052230
:100DE0006946302000F068F905226946102000F0BD
:100DF000B5F8002406E01DF80400AA2800D003E09E
:100E0000601CC4B2052CF6DB00BF052C01D001200C
:100E10001CBD0020FCE70000AAAAAAAAAA000000A4
:100E200008B5012141F2040000F0DEF9E020ADF840
:100E3000000018208DF8030003208DF80200694699
:100E40002A48FFF7F1FEE0212848FFF77AFF10203B
:100E5000ADF800008DF8030003208DF8020069460C
:100E60002248FFF7E1FE10212048FFF76AFF10201B
:100E7000ADF800008DF8030003208DF802006946EC
:100E80001B48FFF7D1FE2020ADF8000048208DF868
:100E9000030003208DF8020069461548FFF7C4FEE1
:100EA00030211348FFF74DFF0020124908804FF40E
:100EB0008270488000208880C88008814FF40070CC
:100EC0004881102088810020C881072008820A48B4
:100ED00000F050FA0121084800F032FA00200749DA
:100EE000086001200649C1F8900108BD00080140D2
:100EF00000100140620A00200030014090012242AF
:100F00000000214210B50446002012490860052265
:100F100021462A2000F0D0F80121212000F0EAF833
:100F20000121222000F0E6F82821252000F0E2F837
:100F30002021312000F0DEF80F21262000F0DAF821
:100F40000F21202000F0D6F801200349C1F89001BC
:100F500010BD000090012242000022422DE9F04124
:100F600007460D46164600200A490860384600F03C
:100F7000BDF98046002405E0FF2000F0B7F92855B0
:100F8000601CC4B2B442F7DB01200249086040464D
:100F9000BDE8F0819001214270B504460020074968
:100FA0000860204600F0A2F9FF2000F09FF90546F6
:100FB00001200349C1F89001284670BD90012142EB
:100FC0000000214270B504460720FFF7E5FF054603
:100FD0002946272000F08EF805F0400050B120226D
:100FE00021466120FFF7BAFFFF21E22000F082F8DE
:100FF000002070BD0120FCE710B504460020144914
:10100000086005222146302000F056F805222146CE
:101010002A2000F051F80121212000F06BF8012175
:10102000222000F067F81A21242000F063F828211C
:10103000252000F05FF80F21262000F05BF80E213C
:10104000202000F057F801200249C1F8900110BD9E
:10105000900122420000224270B50546002014494A
:10106000086020222946A02000F026F8012011491E
:10107000C1F8900100BF0E487C3800680028FAD102
:101080000720FFF789FF04462146272000F032F8A9
:1010900004F0100028B1FF21E12000F02BF810200F
:1010A00070BD04F0200008B12020F9E7FF20F7E729
:1010B00090012242000022422DE9F04107460C46F1
:1010C000154600200A490860384600F00FF98046AE
:1010D000002605E014F8010B00F008F9701CC6B2F8
:1010E000AE42F7DB0120024908604046BDE8F081CE
:1010F0009001214270B505460C4600200749086062
:10110000284600F0F3F80646204600F0EFF80120EC
:101110000349C1F89001304670BD000090012142A2
:101120000000214208B5012240F22551084800F094
:101130009AFB25208DF8000003208DF801008DF822
:10114000020001208DF80300684600F003F808BD96
:101150000038014070B5002100230F22C47804B389
:10116000154C246804F4E064C4F5E064210AC1F17C
:101170000403CA40447804FA03F1847814402143FC
:1011800009010E4C0678A155047804F01F050124CE
:10119000AC4005786D11AD0005F1E025C5F80041C2
:1011A00009E0047804F01F050124AC40044D0678E2
:1011B000761145F8264070BD0CED00E000E400E03B
:1011C00080E100E07047000029B1064AD26902437D
:1011D000044BDA6104E0034AD2698243014BDA61CD
:1011E000704700000010024029B1064A926902438C
:1011F000044B9A6104E0034A92698243014B9A616D
:10120000704700000010024010B5012144F20400B4
:10121000FFF7EAFF10BD000030B5002100220024D6
:1012200000232D4D6D6805F00C0121B1042905D076
:10123000082923D105E0294D056022E0274D0560EE
:101240001FE0254D6D6805F47012234D6D6805F49F
:101250008034022505EB92421CB9214D55430560AF
:101260000BE01D4D6D6805F400351DB11C4D554357
:10127000056002E0194D5543056002E0174D056019
:1012800000BF00BF144D6D6805F0F0010909154D50
:101290006B5C0568DD4045600F4D6D6805F4E061ED
:1012A000090A104D6B5C4568DD4085600A4D6D682C
:1012B00005F46051C90A0B4D6B5C4568DD40C560A3
:1012C000054D6D6805F44041890B074D6B5CC568A1
:1012D000B5FBF3F5056130BD0010024000127A0045
:1012E00000093D00220000203200002070B50546B4
:1012F000002405E0601CC4B2C82C01DD002070BDD4
:1013000002210E4800F028F80028F3D029460B48A7
:1013100000F02EF8002405E0601CC4B2C82C01DDEA
:101320000020ECE70121054800F016F80028F3D072
:10133000024800F01AF8C0B2E1E7000000300140B6
:1013400021B1028842F04002028004E002884FF698
:10135000BF731A40028070470246002013890B4079
:101360000BB1012000E000207047014688897047DA
:101370008181704710B50022028802F441520B8827
:101380004C8823438C882343CC8823430C892343F4
:101390004C8923438C892343CC8923431A430280FD
:1013A000838B4FF2FF74234083830B8A038210BD2B
:1013B000704710B500F002F810BD00000CB5002019
:1013C000019000903348006840F480303149086053
:1013D00000BF3048006800F4003000900198401CC5
:1013E0000190009818B90198B0F5A06FF1D1294883
:1013F000006800F4003010B10120009001E00020EE
:1014000000900098012843D12348006840F0100064
:10141000214908600846006820F00300086008467B
:10142000006840F0020008601A48406819494860A6
:101430000846406848600846406840F4806048605C
:101440000846406820F47C1048600846406840F434
:10145000E81048600846006840F08070086000BFEF
:101460000C48006800F000700028F9D00948406876
:1014700020F00300074948600846406840F0020039
:10148000486000BF0348406800F00C000828F9D10C
:101490000CBD00000010024000200240042808D1CA
:1014A0004FF0E021096941F004014FF0E0221161A1
:1014B00007E04FF0E021096921F004014FF0E0223C
:1014C000116170477047000010B51348006840F084
:1014D00001001149086008464068104908400E495B
:1014E0004860084600680E4908400B4908600846F5
:1014F000006820F4802008600846406820F4FE0060
:1015000048604FF41F008860FFF753FF4FF0006002
:101510000449086010BD0000001002400000FFF800
:10152000FFFFF6FE08ED00E010B50121074800F0CE
:1015300052F8012804D106480068401C044908609C
:101540000121024800F038F810BD000000040040FE
:10155000040000201FB501210220FFF735FE42F2F2
:101560000F70ADF8080041F61F40ADF804000020F0
:10157000ADF80A00ADF8060001A90E4800F046F8E3
:10158000012211460B4800F037F81D208DF80000AD
:1015900000208DF8010003208DF8020001208DF855
:1015A00003006846FFF7D6FD0121024800F007F866
:1015B0001FBD000000040040CA430282704721B1F1
:1015C000028842F00102028004E002884FF6FE73B6
:1015D0001A400280704730B50246002000230024E4
:1015E000158A05EA0103958905EA010413B10CB1D6
:1015F000012000E0002030BD1AB183890B438381B4
:1016000002E083898B4383817047000000220288B7
:101610001D4B98420ED01D4B98420BD0B0F1804F1D
:1016200008D01B4B984205D01A4B984202D01A4B57
:10163000984204D14FF68F731A404B881A43174BC8
:10164000984207D0164B984204D04FF6FF431A40F9
:10165000CB881A4302808B8883850B8803850A4BCD
:1016600098420BD0094B984208D00E4B984205D0B7
:101670000D4B984202D00D4B984201D10B7A038654
:101680000123838270470000002C01400034014098
:101690000004004000080040000C00400010004022
:1016A0000014004000400140004401400048014057
:1016B00010B540F225510C4800F0ABF898B140F25B
:1016C0002551094800F060F8074800F05DF9C4B200
:1016D0002146054800F05DF900BF4021024800F0B6
:1016E0008BF80128F9D110BD0038014010B540F247
:1016F0002551204800F08DF8002839D040F22551BE
:101700001C4800F041F81B4800F03EF9C1B21A48ED
:1017100002780078401C184B1870184881541846FD
:101720000078401E1549085C0A2805D01846007844
:10173000401E085C2A281BD14FF4FA711048FEF7AE
:101740005AFE002405E00D48005D0D490855601C57
:10175000C4B2094800788442F5DB002006490870CD
:101760004FF400610548FEF746FE01200549087068
:1017700010BD000000440040210000206E00002049
:101780006E0800202000002010B50022002340F643
:101790006A14A14200D100BF0A1201249440A3B2EE
:1017A000DC43048010BD21B1828942F40052828161
:1017B00004E082894DF6FF731A4082817047000071
:1017C0001FB54FF4E13000900020ADF80400ADF8F3
:1017D0000600ADF80800ADF80C000C20ADF80A00CA
:1017E0006946044800F064F801210248FFF7DBFF76
:1017F0001FBD00000038014002460020B1F5007F07
:1018000000D100BF13880B400BB1012000E0002085
:10181000704770B50246002400230025002040F6E2
:101820006A16B14200D100BFC1F3421501F01F0397
:10183000012606FA03F3012D02D19689334006E012
:10184000022D02D1168A334001E0968A33400C12F1
:10185000012606FA04F41688344013B10CB10120B5
:1018600000E0002070BDF0B50346002400260025EE
:10187000002040F66A17B94200D100BF1846C1F3F4
:10188000421401F01F06012707FA06F5012C01D1C9
:101890000C3004E0022C01D1103000E014301AB1F9
:1018A00007682F43076002E00768AF430760F0BD99
:1018B0002DE9F04786B005460E460024A24600BF3B
:1018C000A1460027B08900B100BF2F462C8A4CF6F4
:1018D000FF700440F08804432C82AC894EF6F3106C
:1018E0000440B08831890843718908430443AC81BE
:1018F000AC8A4FF6FF400440B0890443AC8201A893
:10190000FFF78AFC1F48874202D1DDF810A001E0F2
:10191000DDF80CA0A88900F4004040B10AEBCA0031
:1019200000EB0A1031684900B0FBF1F807E00AEB60
:10193000CA0000EB0A1031688900B0FBF1F864209E
:10194000B8FBF0F004012009642101FB1089A8898B
:1019500000F4004040B1322000EBC900B0FBF1F0D0
:1019600000F00700044308E0322000EB0910642176
:10197000B0FBF1F000F00F0004432C8106B0BDE88D
:10198000F08700000038014001468888C0F3080055
:101990007047C1F308028280704700BFFEE710B5B0
:1019A000FFF732FCFFF722F9FFF70AFFFFF7BAFB58
:1019B00010BD000010B586B0044601210420FFF7D9
:1019C00013FC01214804FFF7FFFB0420ADF81400CD
:1019D00018208DF8170003208DF8160005A91C4863
:1019E000FFF722F90820ADF8140004208DF8170045
:1019F00005A91748FFF718F901940020ADF8080071
:101A0000ADF80A00ADF80C00ADF810000C20ADF8F0
:101A10000E0001A90F48FFF74BFF012240F22551AC
:101A20000C48FFF720FF26208DF8000003208DF8DA
:101A300001008DF8020001208DF803006846FFF7D1
:101A400089FB01210348FFF7AEFE06B010BD000080
:101A5000000801400044004010B5044621460548F6
:101A6000FFF797FF00BF80210248FFF7C5FE01285E
:101A7000F9D110BD0044004070B505460E46002463
:101A800004E0285DFFF7E8FF601C84B2285D08B120
:101A9000B442F6DD70BD00BF704700000146114A38
:101AA00012884A434FF0E0235A6100229A611A4695
:101AB000126942F001021A6100BF4FF0E022106982
:101AC00000F001021AB100F48032002AF5D04FF084
:101AD000E022126922F001024FF0E0231A61002295
:101AE0009A6170473800002070B504460D46E1B297
:101AF0000548FFF74EFF00BF80210348FFF77CFE3B
:101B00000028F9D0204670BD00380140FFF734F9B5
:101B1000FEF792FDFEF7B0FDFFF718F9FFF73FFF64
:101B2000FEF72CFEFFF77CF9FFF714FD3BA0FEF754
:101B300077FB71E03C48007801286DD13B493CA01F
:101B4000FEF76EFB3EA13948FEF724FC60B13CA1D4
:101B50003648FEF771FB3C4800F0B4F820B9052286
:101B60003A490120FEF75AFF39A13048FEF712FC2E
:101B700060B137A12D48FEF75FFB334800F0A2F8B3
:101B800020B9052231490120FEF748FF32A127483C
:101B9000FEF700FC60B130A12448FEF74DFB304851
:101BA00000F090F820B9052228490120FEF736FF01
:101BB0002CA11E48FEF7EEFB28B12CA0FEF730FB4F
:101BC00000202D4908602DA11848FEF7E3FB28B13D
:101BD0002CA0FEF725FB0120274908602DA1134802
:101BE000FEF7D8FB28B12DA0FEF71AFB00202E49E6
:101BF00008602EA10D48FEF7CDFB50B12DA0FEF7D9
:101C00000FFB2948006808B9012000E000202649A0
:101C100008600020044908708CE70000496E697470
:101C2000204F4B210A000000200000206E080020F9
:101C300072785F627566666572A3BA25730A0000E2
:101C40006268313700000000641D00085500002064
:101C50006468746C00000000736739300000000095
:101C6000691D00086C6564356F0000004C45445FD9
:101C7000355F4F50454E0A00948121426C656435B2
:101C8000630000004C45445F355F434C4F53450AA9
:101C9000000000006C6564366F0000004C45445F36
:101CA000365F4F50454E0A00980123426C656436FA
:101CB000630000004C45445F365F434C4F53450A78
:101CC0000000000010B5044602E020A0FEF7A8FACC
:101CD000FFF780F80028F8D114E02046FFF78CF9D0
:101CE0000520FFF7DBFE1C48FFF7B6F9202800D1DE
:101CF00009E01A4800680F2804D10020174908603D
:101D0000401E10BDE9E700BF02E010A0FEF788FA10
:101D1000FFF760F80028F8D113E02046FFF7F2F84B
:101D20000520FFF7BBFE0E48FFF74CF900B909E0AC
:101D30000A4800680F2804D1002008490860401EA6
:101D4000DFE7EAE700BF0020DBE700004E52462055
:101D50004552524F52210A003C000020040000204E
:101D60005500002034431010014310010102344398
:101D70001010034310010104981D0008000000200A
:101D80003C0000006C010008D41D00083C0000204D
:101D90009C10000088010008000000000000000006
:101DA00000A24A0400000000000000000102030439
:101DB0000607080900000000000000000000010202
:101DC00003040102030406070809020406080000D0
:041DD000000000000F
:0400000508000131BD
:00000001FF
